{
  "transactions": [
    {
      "hash": "0xcf7458b9c2b98b88a58425d8416c1220dc53be190b509fc7d5634d34e57b867d",
      "transactionType": "CALL",
      "contractName": null,
      "contractAddress": "0x97676bc05980be9321cd8ef6ac11b2809c2ead65",
      "function": "mintNft(uint8,string)",
      "arguments": [
        "0",
        "\"Kitty2\""
      ],
      "transaction": {
        "from": "0x05b8b8ed022fb7fc2e75983eab003a6c7202e1a0",
        "to": "0x97676bc05980be9321cd8ef6ac11b2809c2ead65",
        "gas": "0x3cc4b",
        "value": "0x0",
        "input": "0x567d2cd30000000000000000000000000000000000000000000000000000000000000000000000000000000000000000000000000000000000000000000000000000004000000000000000000000000000000000000000000000000000000000000000064b69747479320000000000000000000000000000000000000000000000000000",
        "nonce": "0x14",
        "chainId": "0x3e9"
      },
      "additionalContracts": [],
      "isFixedGasLimit": false
    }
  ],
  "receipts": [
    {
      "status": "0x1",
      "cumulativeGasUsed": "0x2f83d",
      "logs": [
        {
          "address": "0x97676bc05980be9321cd8ef6ac11b2809c2ead65",
          "topics": [
            "0xddf252ad1be2c89b69c2b068fc378daa952ba7f163c4a11628f55a4df523b3ef",
            "0x0000000000000000000000000000000000000000000000000000000000000000",
            "0x00000000000000000000000005b8b8ed022fb7fc2e75983eab003a6c7202e1a0",
            "0x0000000000000000000000000000000000000000000000000000000000000001"
          ],
          "data": "0x",
          "blockHash": "0x033518e3eb2edcf14a55ba8e20cc8abce9d3b5f4a2a69364200fc8fd8df05b71",
          "blockNumber": "0x9e56b25",
          "transactionHash": "0xcf7458b9c2b98b88a58425d8416c1220dc53be190b509fc7d5634d34e57b867d",
          "transactionIndex": "0x0",
          "logIndex": "0x0",
          "removed": false
        },
        {
          "address": "0x97676bc05980be9321cd8ef6ac11b2809c2ead65",
          "topics": [
            "0xa87dd51031a6f7041187c1c379ce1ddabe19d6e56f4601168b5e4f3377f24e63",
            "0x00000000000000000000000005b8b8ed022fb7fc2e75983eab003a6c7202e1a0",
            "0x0000000000000000000000000000000000000000000000000000000000000001"
          ],
          "data": "0x0000000000000000000000000000000000000000000000000000000000000060000000000000000000000000000000000000000000000000000000000000000000000000000000000000000000000000000000000000000000000000000000a000000000000000000000000000000000000000000000000000000000000000064b697474793200000000000000000000000000000000000000000000000000000000000000000000000000000000000000000000000000000000000000000035697066733a2f2f516d58624439636a4d5a48354e45657578544a79535456586a426a6e375266355a317169544653434c374647794c0000000000000000000000",
          "blockHash": "0x033518e3eb2edcf14a55ba8e20cc8abce9d3b5f4a2a69364200fc8fd8df05b71",
          "blockNumber": "0x9e56b25",
          "transactionHash": "0xcf7458b9c2b98b88a58425d8416c1220dc53be190b509fc7d5634d34e57b867d",
          "transactionIndex": "0x0",
          "logIndex": "0x1",
          "removed": false
        }
      ],
      "logsBloom": "0x00000000000000000000000000000000000000000000000000000000000000000000000000000000000100000020000000000000000000000000000000040000000000000000000202000008000000000000000000040000000000000000000000000000020000000000000000000800000000000000000000008010000000000000000000000000000000000000000000000000000000000000000000000000000000200000000200000008000000000000000000001000000000000000000000000002000000000000000000000000000000000000000000000000000060000000000000000000000000000000000000000000000000000000000000000000",
      "type": "0x2",
      "transactionHash": "0xcf7458b9c2b98b88a58425d8416c1220dc53be190b509fc7d5634d34e57b867d",
      "transactionIndex": "0x0",
      "blockHash": "0x033518e3eb2edcf14a55ba8e20cc8abce9d3b5f4a2a69364200fc8fd8df05b71",
      "blockNumber": "0x9e56b25",
      "gasUsed": "0x2f83d",
      "effectiveGasPrice": "0x66720b300",
      "from": "0x05b8b8ed022fb7fc2e75983eab003a6c7202e1a0",
      "to": "0x97676bc05980be9321cd8ef6ac11b2809c2ead65",
      "contractAddress": null
    }
  ],
  "libraries": [],
  "pending": [],
  "returns": {},
  "timestamp": 1727611842,
  "chain": 1001,
  "commit": "a55258c"
}