{
  "transactions": [
    {
      "hash": "0xa3749f679883b8651fa5fc42f1f6f630eb3184da5ac7b57b259b5649fff700d4",
      "transactionType": "CALL",
      "contractName": null,
      "contractAddress": "0x43cae396dc42d2b5c80ad8b965ebe94be51ad239",
      "function": "mintNft(uint8,string)",
      "arguments": [
        "0",
        "\"Kitty2\""
      ],
      "transaction": {
        "from": "0x05b8b8ed022fb7fc2e75983eab003a6c7202e1a0",
        "to": "0x43cae396dc42d2b5c80ad8b965ebe94be51ad239",
        "gas": "0x477ae",
        "value": "0x0",
        "input": "0x567d2cd30000000000000000000000000000000000000000000000000000000000000000000000000000000000000000000000000000000000000000000000000000004000000000000000000000000000000000000000000000000000000000000000064b69747479320000000000000000000000000000000000000000000000000000",
        "nonce": "0x16",
        "chainId": "0x3e9"
      },
      "additionalContracts": [],
      "isFixedGasLimit": false
    }
  ],
  "receipts": [
    {
      "status": "0x1",
      "cumulativeGasUsed": "0x365648",
      "logs": [
        {
          "address": "0x43cae396dc42d2b5c80ad8b965ebe94be51ad239",
          "topics": [
            "0xddf252ad1be2c89b69c2b068fc378daa952ba7f163c4a11628f55a4df523b3ef",
            "0x0000000000000000000000000000000000000000000000000000000000000000",
            "0x00000000000000000000000005b8b8ed022fb7fc2e75983eab003a6c7202e1a0",
            "0x0000000000000000000000000000000000000000000000000000000000000000"
          ],
          "data": "0x",
          "blockHash": "0x5ebcbd7eb9d8d0293c54daa41d807715d45422a9fa55c6bdd56bf5851d32ecd4",
          "blockNumber": "0x9e58c1a",
          "transactionHash": "0xa3749f679883b8651fa5fc42f1f6f630eb3184da5ac7b57b259b5649fff700d4",
          "transactionIndex": "0x1",
          "logIndex": "0x20",
          "removed": false
        },
        {
          "address": "0x43cae396dc42d2b5c80ad8b965ebe94be51ad239",
          "topics": [
            "0xa87dd51031a6f7041187c1c379ce1ddabe19d6e56f4601168b5e4f3377f24e63",
            "0x00000000000000000000000005b8b8ed022fb7fc2e75983eab003a6c7202e1a0",
            "0x0000000000000000000000000000000000000000000000000000000000000000"
          ],
          "data": "0x0000000000000000000000000000000000000000000000000000000000000060000000000000000000000000000000000000000000000000000000000000000000000000000000000000000000000000000000000000000000000000000000a000000000000000000000000000000000000000000000000000000000000000064b697474793200000000000000000000000000000000000000000000000000000000000000000000000000000000000000000000000000000000000000000035697066733a2f2f516d58624439636a4d5a48354e45657578544a79535456586a426a6e375266355a317169544653434c374647794c0000000000000000000000",
          "blockHash": "0x5ebcbd7eb9d8d0293c54daa41d807715d45422a9fa55c6bdd56bf5851d32ecd4",
          "blockNumber": "0x9e58c1a",
          "transactionHash": "0xa3749f679883b8651fa5fc42f1f6f630eb3184da5ac7b57b259b5649fff700d4",
          "transactionIndex": "0x1",
          "logIndex": "0x21",
          "removed": false
        }
      ],
      "logsBloom": "0x00000000000000000000000000000000000000000002000000400000000000000000000000000000000000000000000000000000000000000000000000000000000000000000000202000008000000000000000000000000000000000000000000000000020000000000000000000800000000000000000000008010000000000000000000000000000000000000000000000000000000000000000000000000000000000000000200000008000000000000000000001000000000000000000000000002000000000000000000000000000000000000000000000000000020000000000000000000000000040000000000000000000000000000000000000000",
      "type": "0x2",
      "transactionHash": "0xa3749f679883b8651fa5fc42f1f6f630eb3184da5ac7b57b259b5649fff700d4",
      "transactionIndex": "0x1",
      "blockHash": "0x5ebcbd7eb9d8d0293c54daa41d807715d45422a9fa55c6bdd56bf5851d32ecd4",
      "blockNumber": "0x9e58c1a",
      "gasUsed": "0x37dd5",
      "effectiveGasPrice": "0x5d21dba01",
      "from": "0x05b8b8ed022fb7fc2e75983eab003a6c7202e1a0",
      "to": "0x43cae396dc42d2b5c80ad8b965ebe94be51ad239",
      "contractAddress": null
    }
  ],
  "libraries": [],
  "pending": [],
  "returns": {},
  "timestamp": 1727620280,
  "chain": 1001,
  "commit": "a55258c"
}