{
  "transactions": [
    {
      "hash": "0x92bd3d17a6944f133f2a9641780ec51ea18d4ed90a7eca31a5cf4fc190deea5c",
      "transactionType": "CALL",
      "contractName": null,
      "contractAddress": "0x97676bc05980be9321cd8ef6ac11b2809c2ead65",
      "function": "mintNft(uint8,string)",
      "arguments": [
        "0",
        "\"Kitty\""
      ],
      "transaction": {
        "from": "0x05b8b8ed022fb7fc2e75983eab003a6c7202e1a0",
        "to": "0x97676bc05980be9321cd8ef6ac11b2809c2ead65",
        "gas": "0x43813",
        "value": "0x0",
        "input": "0x567d2cd30000000000000000000000000000000000000000000000000000000000000000000000000000000000000000000000000000000000000000000000000000004000000000000000000000000000000000000000000000000000000000000000054b69747479000000000000000000000000000000000000000000000000000000",
        "nonce": "0x13",
        "chainId": "0x3e9"
      },
      "additionalContracts": [],
      "isFixedGasLimit": false
    }
  ],
  "receipts": [
    {
      "status": "0x1",
      "cumulativeGasUsed": "0x37dd5",
      "logs": [
        {
          "address": "0x97676bc05980be9321cd8ef6ac11b2809c2ead65",
          "topics": [
            "0xddf252ad1be2c89b69c2b068fc378daa952ba7f163c4a11628f55a4df523b3ef",
            "0x0000000000000000000000000000000000000000000000000000000000000000",
            "0x00000000000000000000000005b8b8ed022fb7fc2e75983eab003a6c7202e1a0",
            "0x0000000000000000000000000000000000000000000000000000000000000000"
          ],
          "data": "0x",
          "blockHash": "0x604bead61a5bda827c6c3e7749ef7eb991746eb13a5363a1166c296ec4cd9eca",
          "blockNumber": "0x9e569ec",
          "transactionHash": "0x92bd3d17a6944f133f2a9641780ec51ea18d4ed90a7eca31a5cf4fc190deea5c",
          "transactionIndex": "0x0",
          "logIndex": "0x0",
          "removed": false
        },
        {
          "address": "0x97676bc05980be9321cd8ef6ac11b2809c2ead65",
          "topics": [
            "0xa87dd51031a6f7041187c1c379ce1ddabe19d6e56f4601168b5e4f3377f24e63",
            "0x00000000000000000000000005b8b8ed022fb7fc2e75983eab003a6c7202e1a0",
            "0x0000000000000000000000000000000000000000000000000000000000000000"
          ],
          "data": "0x0000000000000000000000000000000000000000000000000000000000000060000000000000000000000000000000000000000000000000000000000000000000000000000000000000000000000000000000000000000000000000000000a000000000000000000000000000000000000000000000000000000000000000054b697474790000000000000000000000000000000000000000000000000000000000000000000000000000000000000000000000000000000000000000000035697066733a2f2f516d58624439636a4d5a48354e45657578544a79535456586a426a6e375266355a317169544653434c374647794c0000000000000000000000",
          "blockHash": "0x604bead61a5bda827c6c3e7749ef7eb991746eb13a5363a1166c296ec4cd9eca",
          "blockNumber": "0x9e569ec",
          "transactionHash": "0x92bd3d17a6944f133f2a9641780ec51ea18d4ed90a7eca31a5cf4fc190deea5c",
          "transactionIndex": "0x0",
          "logIndex": "0x1",
          "removed": false
        }
      ],
      "logsBloom": "0x00000000000000000000000000000000000000000000000000000000000000000000000000000000000100000020000000000000000000000000000000000000000000000000000202000008000000000000000000000000000000000000000000000000020000000000000000000800000000000000000000008010000000000000000000000000000000000000000000000000000000000000000000000000000000200000000200000008000000000000000000001000000000000000000000000002000000000000000000000000000000000000000000000000000020000000000000000000000000000000000000000000000000000000000000000000",
      "type": "0x2",
      "transactionHash": "0x92bd3d17a6944f133f2a9641780ec51ea18d4ed90a7eca31a5cf4fc190deea5c",
      "transactionIndex": "0x0",
      "blockHash": "0x604bead61a5bda827c6c3e7749ef7eb991746eb13a5363a1166c296ec4cd9eca",
      "blockNumber": "0x9e569ec",
      "gasUsed": "0x37dd5",
      "effectiveGasPrice": "0x66720b300",
      "from": "0x05b8b8ed022fb7fc2e75983eab003a6c7202e1a0",
      "to": "0x97676bc05980be9321cd8ef6ac11b2809c2ead65",
      "contractAddress": null
    }
  ],
  "libraries": [],
  "pending": [],
  "returns": {},
  "timestamp": 1727611529,
  "chain": 1001,
  "commit": "a55258c"
}