{
  "transactions": [
    {
      "hash": "0x60641ad0c2e631750af75362d4eb529ac8679c3a8c540b4307bdfca16a1b6839",
      "transactionType": "CALL",
      "contractName": null,
      "contractAddress": "0x43cae396dc42d2b5c80ad8b965ebe94be51ad239",
      "function": "updatePetStat(uint256,uint8,bytes)",
      "arguments": [
        "0",
        "0",
        "0x81727b84dc2b39bae47c6f695a776f98066ce9f9c12eb3a3e69a153201ccbefb2936d77d581266e8ea65d3578cba3f2dfc5c15033b4a90e1aa013a6ae8bcc4881c"
      ],
      "transaction": {
        "from": "0x05b8b8ed022fb7fc2e75983eab003a6c7202e1a0",
        "to": "0x43cae396dc42d2b5c80ad8b965ebe94be51ad239",
        "gas": "0xedd0",
        "value": "0x0",
        "input": "0xde4b7620000000000000000000000000000000000000000000000000000000000000000000000000000000000000000000000000000000000000000000000000000000000000000000000000000000000000000000000000000000000000000000000060000000000000000000000000000000000000000000000000000000000000004181727b84dc2b39bae47c6f695a776f98066ce9f9c12eb3a3e69a153201ccbefb2936d77d581266e8ea65d3578cba3f2dfc5c15033b4a90e1aa013a6ae8bcc4881c00000000000000000000000000000000000000000000000000000000000000",
        "nonce": "0x25",
        "chainId": "0x3e9"
      },
      "additionalContracts": [],
      "isFixedGasLimit": false
    }
  ],
  "receipts": [],
  "libraries": [],
  "pending": [],
  "returns": {},
  "timestamp": 1727769910,
  "chain": 1001,
  "commit": "a55258c"
}